:03000000020006F5
:03005F0002000399
:0300030002006296
:20006200E4F50CF50DF580F590F5A0F5B0E50C450D700B7580E0F59075A09D75B001E4F59A
:2000820008F509C3E50894F4E5099401502AE4F50AF50BC3E50A94E8E50B9403500D7401B9
:2000A200250AF50AE4350BF50B80E874012508F508E43509F50980CB7580E075900075A08B
:2000C2009D75B001E4F508F509C3E50894F4E5099401502AE4F50AF50BC3E50A94E8E50B46
:2000E2009403500D7401250AF50AE4350BF50B80E874012508F508E43509F50980CB7580DC
:13010200FE75900075A0BB75B001750C01750D0002006F7C
:06003500E478FFF6D8FD9F
:200013007900E94400601B7A00900119780175A000E493F2A308B8000205A0D9F4DAF27579
:02003300A0FF2C
:20003B007800E84400600A790175A000E4F309D8FC7800E84400600C7900900001E4F0A3C3
:04005B00D8FCD9FAFA
:0D00060075810D120115E5826003020003F3
:0401150075820022CD
:00000001FF
